{
  "contractName": "MyNFT",
  "abi": [
    {
      "inputs": [],
      "stateMutability": "nonpayable",
      "type": "constructor"
    },
    {
      "anonymous": false,
      "inputs": [
        {
          "indexed": true,
          "internalType": "address",
          "name": "owner",
          "type": "address"
        },
        {
          "indexed": true,
          "internalType": "address",
          "name": "approved",
          "type": "address"
        },
        {
          "indexed": true,
          "internalType": "uint256",
          "name": "tokenId",
          "type": "uint256"
        }
      ],
      "name": "Approval",
      "type": "event"
    },
    {
      "anonymous": false,
      "inputs": [
        {
          "indexed": true,
          "internalType": "address",
          "name": "owner",
          "type": "address"
        },
        {
          "indexed": true,
          "internalType": "address",
          "name": "operator",
          "type": "address"
        },
        {
          "indexed": false,
          "internalType": "bool",
          "name": "approved",
          "type": "bool"
        }
      ],
      "name": "ApprovalForAll",
      "type": "event"
    },
    {
      "anonymous": false,
      "inputs": [
        {
          "indexed": false,
          "internalType": "uint256",
          "name": "_fromTokenId",
          "type": "uint256"
        },
        {
          "indexed": false,
          "internalType": "uint256",
          "name": "_toTokenId",
          "type": "uint256"
        }
      ],
      "name": "BatchMetadataUpdate",
      "type": "event"
    },
    {
      "anonymous": false,
      "inputs": [
        {
          "indexed": false,
          "internalType": "uint256",
          "name": "_tokenId",
          "type": "uint256"
        }
      ],
      "name": "MetadataUpdate",
      "type": "event"
    },
    {
      "anonymous": false,
      "inputs": [
        {
          "indexed": true,
          "internalType": "address",
          "name": "previousOwner",
          "type": "address"
        },
        {
          "indexed": true,
          "internalType": "address",
          "name": "newOwner",
          "type": "address"
        }
      ],
      "name": "OwnershipTransferred",
      "type": "event"
    },
    {
      "anonymous": false,
      "inputs": [
        {
          "indexed": true,
          "internalType": "address",
          "name": "from",
          "type": "address"
        },
        {
          "indexed": true,
          "internalType": "address",
          "name": "to",
          "type": "address"
        },
        {
          "indexed": true,
          "internalType": "uint256",
          "name": "tokenId",
          "type": "uint256"
        }
      ],
      "name": "Transfer",
      "type": "event"
    },
    {
      "inputs": [
        {
          "internalType": "address",
          "name": "to",
          "type": "address"
        },
        {
          "internalType": "uint256",
          "name": "tokenId",
          "type": "uint256"
        }
      ],
      "name": "approve",
      "outputs": [],
      "stateMutability": "nonpayable",
      "type": "function"
    },
    {
      "inputs": [
        {
          "internalType": "address",
          "name": "owner",
          "type": "address"
        }
      ],
      "name": "balanceOf",
      "outputs": [
        {
          "internalType": "uint256",
          "name": "",
          "type": "uint256"
        }
      ],
      "stateMutability": "view",
      "type": "function"
    },
    {
      "inputs": [
        {
          "internalType": "uint256",
          "name": "tokenId",
          "type": "uint256"
        }
      ],
      "name": "getApproved",
      "outputs": [
        {
          "internalType": "address",
          "name": "",
          "type": "address"
        }
      ],
      "stateMutability": "view",
      "type": "function"
    },
    {
      "inputs": [
        {
          "internalType": "address",
          "name": "owner",
          "type": "address"
        },
        {
          "internalType": "address",
          "name": "operator",
          "type": "address"
        }
      ],
      "name": "isApprovedForAll",
      "outputs": [
        {
          "internalType": "bool",
          "name": "",
          "type": "bool"
        }
      ],
      "stateMutability": "view",
      "type": "function"
    },
    {
      "inputs": [],
      "name": "name",
      "outputs": [
        {
          "internalType": "string",
          "name": "",
          "type": "string"
        }
      ],
      "stateMutability": "view",
      "type": "function"
    },
    {
      "inputs": [],
      "name": "owner",
      "outputs": [
        {
          "internalType": "address",
          "name": "",
          "type": "address"
        }
      ],
      "stateMutability": "view",
      "type": "function"
    },
    {
      "inputs": [
        {
          "internalType": "uint256",
          "name": "tokenId",
          "type": "uint256"
        }
      ],
      "name": "ownerOf",
      "outputs": [
        {
          "internalType": "address",
          "name": "",
          "type": "address"
        }
      ],
      "stateMutability": "view",
      "type": "function"
    },
    {
      "inputs": [],
      "name": "renounceOwnership",
      "outputs": [],
      "stateMutability": "nonpayable",
      "type": "function"
    },
    {
      "inputs": [
        {
          "internalType": "address",
          "name": "from",
          "type": "address"
        },
        {
          "internalType": "address",
          "name": "to",
          "type": "address"
        },
        {
          "internalType": "uint256",
          "name": "tokenId",
          "type": "uint256"
        }
      ],
      "name": "safeTransferFrom",
      "outputs": [],
      "stateMutability": "nonpayable",
      "type": "function"
    },
    {
      "inputs": [
        {
          "internalType": "address",
          "name": "from",
          "type": "address"
        },
        {
          "internalType": "address",
          "name": "to",
          "type": "address"
        },
        {
          "internalType": "uint256",
          "name": "tokenId",
          "type": "uint256"
        },
        {
          "internalType": "bytes",
          "name": "data",
          "type": "bytes"
        }
      ],
      "name": "safeTransferFrom",
      "outputs": [],
      "stateMutability": "nonpayable",
      "type": "function"
    },
    {
      "inputs": [
        {
          "internalType": "address",
          "name": "operator",
          "type": "address"
        },
        {
          "internalType": "bool",
          "name": "approved",
          "type": "bool"
        }
      ],
      "name": "setApprovalForAll",
      "outputs": [],
      "stateMutability": "nonpayable",
      "type": "function"
    },
    {
      "inputs": [
        {
          "internalType": "bytes4",
          "name": "interfaceId",
          "type": "bytes4"
        }
      ],
      "name": "supportsInterface",
      "outputs": [
        {
          "internalType": "bool",
          "name": "",
          "type": "bool"
        }
      ],
      "stateMutability": "view",
      "type": "function"
    },
    {
      "inputs": [],
      "name": "symbol",
      "outputs": [
        {
          "internalType": "string",
          "name": "",
          "type": "string"
        }
      ],
      "stateMutability": "view",
      "type": "function"
    },
    {
      "inputs": [
        {
          "internalType": "uint256",
          "name": "tokenId",
          "type": "uint256"
        }
      ],
      "name": "tokenURI",
      "outputs": [
        {
          "internalType": "string",
          "name": "",
          "type": "string"
        }
      ],
      "stateMutability": "view",
      "type": "function"
    },
    {
      "inputs": [
        {
          "internalType": "address",
          "name": "from",
          "type": "address"
        },
        {
          "internalType": "address",
          "name": "to",
          "type": "address"
        },
        {
          "internalType": "uint256",
          "name": "tokenId",
          "type": "uint256"
        }
      ],
      "name": "transferFrom",
      "outputs": [],
      "stateMutability": "nonpayable",
      "type": "function"
    },
    {
      "inputs": [
        {
          "internalType": "address",
          "name": "newOwner",
          "type": "address"
        }
      ],
      "name": "transferOwnership",
      "outputs": [],
      "stateMutability": "nonpayable",
      "type": "function"
    },
    {
      "inputs": [
        {
          "internalType": "string",
          "name": "tokenURI",
          "type": "string"
        }
      ],
      "name": "mintNFT",
      "outputs": [],
      "stateMutability": "nonpayable",
      "type": "function"
    }
  ],
  "bytecode": "0x608060405234801562000010575f80fd5b506040518060400160405280600781526020017f50696b61636875000000000000000000000000000000000000000000000000008152506040518060400160405280600481526020017f50494b4100000000000000000000000000000000000000000000000000000000815250815f90816200008d9190620003f6565b5080600190816200009f9190620003f6565b505050620000c2620000b6620000c860201b60201c565b620000cf60201b60201c565b620004da565b5f33905090565b5f60075f9054906101000a900473ffffffffffffffffffffffffffffffffffffffff1690508160075f6101000a81548173ffffffffffffffffffffffffffffffffffffffff021916908373ffffffffffffffffffffffffffffffffffffffff1602179055508173ffffffffffffffffffffffffffffffffffffffff168173ffffffffffffffffffffffffffffffffffffffff167f8be0079c531659141344cd1fd0a4f28419497f9722a3daafe3b4186f6b6457e060405160405180910390a35050565b5f81519050919050565b7f4e487b71000000000000000000000000000000000000000000000000000000005f52604160045260245ffd5b7f4e487b71000000000000000000000000000000000000000000000000000000005f52602260045260245ffd5b5f60028204905060018216806200020e57607f821691505b602082108103620002245762000223620001c9565b5b50919050565b5f819050815f5260205f209050919050565b5f6020601f8301049050919050565b5f82821b905092915050565b5f60088302620002887fffffffffffffffffffffffffffffffffffffffffffffffffffffffffffffffff826200024b565b6200029486836200024b565b95508019841693508086168417925050509392505050565b5f819050919050565b5f819050919050565b5f620002de620002d8620002d284620002ac565b620002b5565b620002ac565b9050919050565b5f819050919050565b620002f983620002be565b620003116200030882620002e5565b84845462000257565b825550505050565b5f90565b6200032762000319565b62000334818484620002ee565b505050565b5b818110156200035b576200034f5f826200031d565b6001810190506200033a565b5050565b601f821115620003aa5762000374816200022a565b6200037f846200023c565b810160208510156200038f578190505b620003a76200039e856200023c565b83018262000339565b50505b505050565b5f82821c905092915050565b5f620003cc5f1984600802620003af565b1980831691505092915050565b5f620003e68383620003bb565b9150826002028217905092915050565b620004018262000192565b67ffffffffffffffff8111156200041d576200041c6200019c565b5b620004298254620001f6565b620004368282856200035f565b5f60209050601f8311600181146200046c575f841562000457578287015190505b620004638582620003d9565b865550620004d2565b601f1984166200047c866200022a565b5f5b82811015620004a5578489015182556001820191506020850194506020810190506200047e565b86831015620004c55784890151620004c1601f891682620003bb565b8355505b6001600288020188555050505b505050505050565b612d9c80620004e85f395ff3fe608060405234801561000f575f80fd5b5060043610610109575f3560e01c8063715018a6116100a0578063b88d4fde1161006f578063b88d4fde146102a1578063c87b56dd146102bd578063e985e9c5146102ed578063f2fde38b1461031d578063fb37e8831461033957610109565b8063715018a61461023f5780638da5cb5b1461024957806395d89b4114610267578063a22cb4651461028557610109565b806323b872dd116100dc57806323b872dd146101a757806342842e0e146101c35780636352211e146101df57806370a082311461020f57610109565b806301ffc9a71461010d57806306fdde031461013d578063081812fc1461015b578063095ea7b31461018b575b5f80fd5b61012760048036038101906101229190611c32565b610355565b6040516101349190611c77565b60405180910390f35b6101456103b5565b6040516101529190611d1a565b60405180910390f35b61017560048036038101906101709190611d6d565b610444565b6040516101829190611dd7565b60405180910390f35b6101a560048036038101906101a09190611e1a565b610486565b005b6101c160048036038101906101bc9190611e58565b61059c565b005b6101dd60048036038101906101d89190611e58565b6105fc565b005b6101f960048036038101906101f49190611d6d565b61061b565b6040516102069190611dd7565b60405180910390f35b61022960048036038101906102249190611ea8565b61069f565b6040516102369190611ee2565b60405180910390f35b610247610753565b005b610251610766565b60405161025e9190611dd7565b60405180910390f35b61026f61078e565b60405161027c9190611d1a565b60405180910390f35b61029f600480360381019061029a9190611f25565b61081e565b005b6102bb60048036038101906102b6919061208f565b610834565b005b6102d760048036038101906102d29190611d6d565b610896565b6040516102e49190611d1a565b60405180910390f35b6103076004803603810190610302919061210f565b6109a0565b6040516103149190611c77565b60405180910390f35b61033760048036038101906103329190611ea8565b610a2e565b005b610353600480360381019061034e91906121eb565b610ab0565b005b5f634906490660e01b7bffffffffffffffffffffffffffffffffffffffffffffffffffffffff1916827bffffffffffffffffffffffffffffffffffffffffffffffffffffffff191614806103ae57506103ad82610aeb565b5b9050919050565b60605f80546103c39061225f565b80601f01602080910402602001604051908101604052809291908181526020018280546103ef9061225f565b801561043a5780601f106104115761010080835404028352916020019161043a565b820191905f5260205f20905b81548152906001019060200180831161041d57829003601f168201915b5050505050905090565b5f61044e82610bcc565b60045f8381526020019081526020015f205f9054906101000a900473ffffffffffffffffffffffffffffffffffffffff169050919050565b5f6104908261061b565b90508073ffffffffffffffffffffffffffffffffffffffff168373ffffffffffffffffffffffffffffffffffffffff1603610500576040517f08c379a00000000000000000000000000000000000000000000000000000000081526004016104f7906122ff565b60405180910390fd5b8073ffffffffffffffffffffffffffffffffffffffff1661051f610c17565b73ffffffffffffffffffffffffffffffffffffffff16148061054e575061054d81610548610c17565b6109a0565b5b61058d576040517f08c379a00000000000000000000000000000000000000000000000000000000081526004016105849061238d565b60405180910390fd5b6105978383610c1e565b505050565b6105ad6105a7610c17565b82610cd4565b6105ec576040517f08c379a00000000000000000000000000000000000000000000000000000000081526004016105e39061241b565b60405180910390fd5b6105f7838383610d68565b505050565b61061683838360405180602001604052805f815250610834565b505050565b5f8061062683611054565b90505f73ffffffffffffffffffffffffffffffffffffffff168173ffffffffffffffffffffffffffffffffffffffff1603610696576040517f08c379a000000000000000000000000000000000000000000000000000000000815260040161068d90612483565b60405180910390fd5b80915050919050565b5f8073ffffffffffffffffffffffffffffffffffffffff168273ffffffffffffffffffffffffffffffffffffffff160361070e576040517f08c379a000000000000000000000000000000000000000000000000000000000815260040161070590612511565b60405180910390fd5b60035f8373ffffffffffffffffffffffffffffffffffffffff1673ffffffffffffffffffffffffffffffffffffffff1681526020019081526020015f20549050919050565b61075b61108d565b6107645f61110b565b565b5f60075f9054906101000a900473ffffffffffffffffffffffffffffffffffffffff16905090565b60606001805461079d9061225f565b80601f01602080910402602001604051908101604052809291908181526020018280546107c99061225f565b80156108145780601f106107eb57610100808354040283529160200191610814565b820191905f5260205f20905b8154815290600101906020018083116107f757829003601f168201915b5050505050905090565b610830610829610c17565b83836111ce565b5050565b61084561083f610c17565b83610cd4565b610884576040517f08c379a000000000000000000000000000000000000000000000000000000000815260040161087b9061241b565b60405180910390fd5b61089084848484611335565b50505050565b60606108a182610bcc565b5f60065f8481526020019081526020015f2080546108be9061225f565b80601f01602080910402602001604051908101604052809291908181526020018280546108ea9061225f565b80156109355780601f1061090c57610100808354040283529160200191610935565b820191905f5260205f20905b81548152906001019060200180831161091857829003601f168201915b505050505090505f610945611391565b90505f81510361095957819250505061099b565b5f8251111561098d578082604051602001610975929190612569565b6040516020818303038152906040529250505061099b565b610996846113a7565b925050505b919050565b5f60055f8473ffffffffffffffffffffffffffffffffffffffff1673ffffffffffffffffffffffffffffffffffffffff1681526020019081526020015f205f8373ffffffffffffffffffffffffffffffffffffffff1673ffffffffffffffffffffffffffffffffffffffff1681526020019081526020015f205f9054906101000a900460ff16905092915050565b610a3661108d565b5f73ffffffffffffffffffffffffffffffffffffffff168173ffffffffffffffffffffffffffffffffffffffff1603610aa4576040517f08c379a0000000000000000000000000000000000000000000000000000000008152600401610a9b906125fc565b60405180910390fd5b610aad8161110b565b50565b610ab861108d565b610acb33610ac6600861140c565b611418565b610ade610ad8600861140c565b82611435565b610ae860086114d7565b50565b5f7f80ac58cd000000000000000000000000000000000000000000000000000000007bffffffffffffffffffffffffffffffffffffffffffffffffffffffff1916827bffffffffffffffffffffffffffffffffffffffffffffffffffffffff19161480610bb557507f5b5e139f000000000000000000000000000000000000000000000000000000007bffffffffffffffffffffffffffffffffffffffffffffffffffffffff1916827bffffffffffffffffffffffffffffffffffffffffffffffffffffffff1916145b80610bc55750610bc4826114eb565b5b9050919050565b610bd581611554565b610c14576040517f08c379a0000000000000000000000000000000000000000000000000000000008152600401610c0b90612483565b60405180910390fd5b50565b5f33905090565b8160045f8381526020019081526020015f205f6101000a81548173ffffffffffffffffffffffffffffffffffffffff021916908373ffffffffffffffffffffffffffffffffffffffff160217905550808273ffffffffffffffffffffffffffffffffffffffff16610c8e8361061b565b73ffffffffffffffffffffffffffffffffffffffff167f8c5be1e5ebec7d5bd14f71427d1e84f3dd0314c0f7b2291e5b200ac8c7c3b92560405160405180910390a45050565b5f80610cdf8361061b565b90508073ffffffffffffffffffffffffffffffffffffffff168473ffffffffffffffffffffffffffffffffffffffff161480610d215750610d2081856109a0565b5b80610d5f57508373ffffffffffffffffffffffffffffffffffffffff16610d4784610444565b73ffffffffffffffffffffffffffffffffffffffff16145b91505092915050565b8273ffffffffffffffffffffffffffffffffffffffff16610d888261061b565b73ffffffffffffffffffffffffffffffffffffffff1614610dde576040517f08c379a0000000000000000000000000000000000000000000000000000000008152600401610dd59061268a565b60405180910390fd5b5f73ffffffffffffffffffffffffffffffffffffffff168273ffffffffffffffffffffffffffffffffffffffff1603610e4c576040517f08c379a0000000000000000000000000000000000000000000000000000000008152600401610e4390612718565b60405180910390fd5b610e598383836001611594565b8273ffffffffffffffffffffffffffffffffffffffff16610e798261061b565b73ffffffffffffffffffffffffffffffffffffffff1614610ecf576040517f08c379a0000000000000000000000000000000000000000000000000000000008152600401610ec69061268a565b60405180910390fd5b60045f8281526020019081526020015f205f6101000a81549073ffffffffffffffffffffffffffffffffffffffff0219169055600160035f8573ffffffffffffffffffffffffffffffffffffffff1673ffffffffffffffffffffffffffffffffffffffff1681526020019081526020015f205f8282540392505081905550600160035f8473ffffffffffffffffffffffffffffffffffffffff1673ffffffffffffffffffffffffffffffffffffffff1681526020019081526020015f205f82825401925050819055508160025f8381526020019081526020015f205f6101000a81548173ffffffffffffffffffffffffffffffffffffffff021916908373ffffffffffffffffffffffffffffffffffffffff160217905550808273ffffffffffffffffffffffffffffffffffffffff168473ffffffffffffffffffffffffffffffffffffffff167fddf252ad1be2c89b69c2b068fc378daa952ba7f163c4a11628f55a4df523b3ef60405160405180910390a461104f838383600161159a565b505050565b5f60025f8381526020019081526020015f205f9054906101000a900473ffffffffffffffffffffffffffffffffffffffff169050919050565b611095610c17565b73ffffffffffffffffffffffffffffffffffffffff166110b3610766565b73ffffffffffffffffffffffffffffffffffffffff1614611109576040517f08c379a000000000000000000000000000000000000000000000000000000000815260040161110090612780565b60405180910390fd5b565b5f60075f9054906101000a900473ffffffffffffffffffffffffffffffffffffffff1690508160075f6101000a81548173ffffffffffffffffffffffffffffffffffffffff021916908373ffffffffffffffffffffffffffffffffffffffff1602179055508173ffffffffffffffffffffffffffffffffffffffff168173ffffffffffffffffffffffffffffffffffffffff167f8be0079c531659141344cd1fd0a4f28419497f9722a3daafe3b4186f6b6457e060405160405180910390a35050565b8173ffffffffffffffffffffffffffffffffffffffff168373ffffffffffffffffffffffffffffffffffffffff160361123c576040517f08c379a0000000000000000000000000000000000000000000000000000000008152600401611233906127e8565b60405180910390fd5b8060055f8573ffffffffffffffffffffffffffffffffffffffff1673ffffffffffffffffffffffffffffffffffffffff1681526020019081526020015f205f8473ffffffffffffffffffffffffffffffffffffffff1673ffffffffffffffffffffffffffffffffffffffff1681526020019081526020015f205f6101000a81548160ff0219169083151502179055508173ffffffffffffffffffffffffffffffffffffffff168373ffffffffffffffffffffffffffffffffffffffff167f17307eab39ab6107e8899845ad3d59bd9653f200f220920489ca2b5937696c31836040516113289190611c77565b60405180910390a3505050565b611340848484610d68565b61134c848484846115a0565b61138b576040517f08c379a000000000000000000000000000000000000000000000000000000000815260040161138290612876565b60405180910390fd5b50505050565b606060405180602001604052805f815250905090565b60606113b282610bcc565b5f6113bb611391565b90505f8151116113d95760405180602001604052805f815250611404565b806113e384611722565b6040516020016113f4929190612569565b6040516020818303038152906040525b915050919050565b5f815f01549050919050565b611431828260405180602001604052805f8152506117ec565b5050565b61143e82611554565b61147d576040517f08c379a000000000000000000000000000000000000000000000000000000000815260040161147490612904565b60405180910390fd5b8060065f8481526020019081526020015f20908161149b9190612abf565b507ff8e1a15aba9398e019f0b49df1a4fde98ee17ae345cb5f6b5e2c27f5033e8ce7826040516114cb9190611ee2565b60405180910390a15050565b6001815f015f828254019250508190555050565b5f7f01ffc9a7000000000000000000000000000000000000000000000000000000007bffffffffffffffffffffffffffffffffffffffffffffffffffffffff1916827bffffffffffffffffffffffffffffffffffffffffffffffffffffffff1916149050919050565b5f8073ffffffffffffffffffffffffffffffffffffffff1661157583611054565b73ffffffffffffffffffffffffffffffffffffffff1614159050919050565b50505050565b50505050565b5f6115c08473ffffffffffffffffffffffffffffffffffffffff16611846565b15611715578373ffffffffffffffffffffffffffffffffffffffff1663150b7a026115e9610c17565b8786866040518563ffffffff1660e01b815260040161160b9493929190612be0565b6020604051808303815f875af192505050801561164657506040513d601f19601f820116820180604052508101906116439190612c3e565b60015b6116c5573d805f8114611674576040519150601f19603f3d011682016040523d82523d5f602084013e611679565b606091505b505f8151036116bd576040517f08c379a00000000000000000000000000000000000000000000000000000000081526004016116b490612876565b60405180910390fd5b805181602001fd5b63150b7a0260e01b7bffffffffffffffffffffffffffffffffffffffffffffffffffffffff1916817bffffffffffffffffffffffffffffffffffffffffffffffffffffffff19161491505061171a565b600190505b949350505050565b60605f600161173084611868565b0190505f8167ffffffffffffffff81111561174e5761174d611f6b565b5b6040519080825280601f01601f1916602001820160405280156117805781602001600182028036833780820191505090505b5090505f82602001820190505b6001156117e1578080600190039150507f3031323334353637383961626364656600000000000000000000000000000000600a86061a8153600a85816117d6576117d5612c69565b5b0494505f850361178d575b819350505050919050565b6117f683836119b9565b6118025f8484846115a0565b611841576040517f08c379a000000000000000000000000000000000000000000000000000000000815260040161183890612876565b60405180910390fd5b505050565b5f808273ffffffffffffffffffffffffffffffffffffffff163b119050919050565b5f805f90507a184f03e93ff9f4daa797ed6e38ed64bf6a1f01000000000000000083106118c4577a184f03e93ff9f4daa797ed6e38ed64bf6a1f01000000000000000083816118ba576118b9612c69565b5b0492506040810190505b6d04ee2d6d415b85acef81000000008310611901576d04ee2d6d415b85acef810000000083816118f7576118f6612c69565b5b0492506020810190505b662386f26fc10000831061193057662386f26fc10000838161192657611925612c69565b5b0492506010810190505b6305f5e1008310611959576305f5e100838161194f5761194e612c69565b5b0492506008810190505b612710831061197e57612710838161197457611973612c69565b5b0492506004810190505b606483106119a1576064838161199757611996612c69565b5b0492506002810190505b600a83106119b0576001810190505b80915050919050565b5f73ffffffffffffffffffffffffffffffffffffffff168273ffffffffffffffffffffffffffffffffffffffff1603611a27576040517f08c379a0000000000000000000000000000000000000000000000000000000008152600401611a1e90612ce0565b60405180910390fd5b611a3081611554565b15611a70576040517f08c379a0000000000000000000000000000000000000000000000000000000008152600401611a6790612d48565b60405180910390fd5b611a7d5f83836001611594565b611a8681611554565b15611ac6576040517f08c379a0000000000000000000000000000000000000000000000000000000008152600401611abd90612d48565b60405180910390fd5b600160035f8473ffffffffffffffffffffffffffffffffffffffff1673ffffffffffffffffffffffffffffffffffffffff1681526020019081526020015f205f82825401925050819055508160025f8381526020019081526020015f205f6101000a81548173ffffffffffffffffffffffffffffffffffffffff021916908373ffffffffffffffffffffffffffffffffffffffff160217905550808273ffffffffffffffffffffffffffffffffffffffff165f73ffffffffffffffffffffffffffffffffffffffff167fddf252ad1be2c89b69c2b068fc378daa952ba7f163c4a11628f55a4df523b3ef60405160405180910390a4611bc85f8383600161159a565b5050565b5f604051905090565b5f80fd5b5f80fd5b5f7fffffffff0000000000000000000000000000000000000000000000000000000082169050919050565b611c1181611bdd565b8114611c1b575f80fd5b50565b5f81359050611c2c81611c08565b92915050565b5f60208284031215611c4757611c46611bd5565b5b5f611c5484828501611c1e565b91505092915050565b5f8115159050919050565b611c7181611c5d565b82525050565b5f602082019050611c8a5f830184611c68565b92915050565b5f81519050919050565b5f82825260208201905092915050565b5f5b83811015611cc7578082015181840152602081019050611cac565b5f8484015250505050565b5f601f19601f8301169050919050565b5f611cec82611c90565b611cf68185611c9a565b9350611d06818560208601611caa565b611d0f81611cd2565b840191505092915050565b5f6020820190508181035f830152611d328184611ce2565b905092915050565b5f819050919050565b611d4c81611d3a565b8114611d56575f80fd5b50565b5f81359050611d6781611d43565b92915050565b5f60208284031215611d8257611d81611bd5565b5b5f611d8f84828501611d59565b91505092915050565b5f73ffffffffffffffffffffffffffffffffffffffff82169050919050565b5f611dc182611d98565b9050919050565b611dd181611db7565b82525050565b5f602082019050611dea5f830184611dc8565b92915050565b611df981611db7565b8114611e03575f80fd5b50565b5f81359050611e1481611df0565b92915050565b5f8060408385031215611e3057611e2f611bd5565b5b5f611e3d85828601611e06565b9250506020611e4e85828601611d59565b9150509250929050565b5f805f60608486031215611e6f57611e6e611bd5565b5b5f611e7c86828701611e06565b9350506020611e8d86828701611e06565b9250506040611e9e86828701611d59565b9150509250925092565b5f60208284031215611ebd57611ebc611bd5565b5b5f611eca84828501611e06565b91505092915050565b611edc81611d3a565b82525050565b5f602082019050611ef55f830184611ed3565b92915050565b611f0481611c5d565b8114611f0e575f80fd5b50565b5f81359050611f1f81611efb565b92915050565b5f8060408385031215611f3b57611f3a611bd5565b5b5f611f4885828601611e06565b9250506020611f5985828601611f11565b9150509250929050565b5f80fd5b5f80fd5b7f4e487b71000000000000000000000000000000000000000000000000000000005f52604160045260245ffd5b611fa182611cd2565b810181811067ffffffffffffffff82111715611fc057611fbf611f6b565b5b80604052505050565b5f611fd2611bcc565b9050611fde8282611f98565b919050565b5f67ffffffffffffffff821115611ffd57611ffc611f6b565b5b61200682611cd2565b9050602081019050919050565b828183375f83830152505050565b5f61203361202e84611fe3565b611fc9565b90508281526020810184848401111561204f5761204e611f67565b5b61205a848285612013565b509392505050565b5f82601f83011261207657612075611f63565b5b8135612086848260208601612021565b91505092915050565b5f805f80608085870312156120a7576120a6611bd5565b5b5f6120b487828801611e06565b94505060206120c587828801611e06565b93505060406120d687828801611d59565b925050606085013567ffffffffffffffff8111156120f7576120f6611bd9565b5b61210387828801612062565b91505092959194509250565b5f806040838503121561212557612124611bd5565b5b5f61213285828601611e06565b925050602061214385828601611e06565b9150509250929050565b5f67ffffffffffffffff82111561216757612166611f6b565b5b61217082611cd2565b9050602081019050919050565b5f61218f61218a8461214d565b611fc9565b9050828152602081018484840111156121ab576121aa611f67565b5b6121b6848285612013565b509392505050565b5f82601f8301126121d2576121d1611f63565b5b81356121e284826020860161217d565b91505092915050565b5f60208284031215612200576121ff611bd5565b5b5f82013567ffffffffffffffff81111561221d5761221c611bd9565b5b612229848285016121be565b91505092915050565b7f4e487b71000000000000000000000000000000000000000000000000000000005f52602260045260245ffd5b5f600282049050600182168061227657607f821691505b60208210810361228957612288612232565b5b50919050565b7f4552433732313a20617070726f76616c20746f2063757272656e74206f776e655f8201527f7200000000000000000000000000000000000000000000000000000000000000602082015250565b5f6122e9602183611c9a565b91506122f48261228f565b604082019050919050565b5f6020820190508181035f830152612316816122dd565b9050919050565b7f4552433732313a20617070726f76652063616c6c6572206973206e6f7420746f5f8201527f6b656e206f776e6572206f7220617070726f76656420666f7220616c6c000000602082015250565b5f612377603d83611c9a565b91506123828261231d565b604082019050919050565b5f6020820190508181035f8301526123a48161236b565b9050919050565b7f4552433732313a2063616c6c6572206973206e6f7420746f6b656e206f776e655f8201527f72206f7220617070726f76656400000000000000000000000000000000000000602082015250565b5f612405602d83611c9a565b9150612410826123ab565b604082019050919050565b5f6020820190508181035f830152612432816123f9565b9050919050565b7f4552433732313a20696e76616c696420746f6b656e20494400000000000000005f82015250565b5f61246d601883611c9a565b915061247882612439565b602082019050919050565b5f6020820190508181035f83015261249a81612461565b9050919050565b7f4552433732313a2061646472657373207a65726f206973206e6f7420612076615f8201527f6c6964206f776e65720000000000000000000000000000000000000000000000602082015250565b5f6124fb602983611c9a565b9150612506826124a1565b604082019050919050565b5f6020820190508181035f830152612528816124ef565b9050919050565b5f81905092915050565b5f61254382611c90565b61254d818561252f565b935061255d818560208601611caa565b80840191505092915050565b5f6125748285612539565b91506125808284612539565b91508190509392505050565b7f4f776e61626c653a206e6577206f776e657220697320746865207a65726f20615f8201527f6464726573730000000000000000000000000000000000000000000000000000602082015250565b5f6125e6602683611c9a565b91506125f18261258c565b604082019050919050565b5f6020820190508181035f830152612613816125da565b9050919050565b7f4552433732313a207472616e736665722066726f6d20696e636f7272656374205f8201527f6f776e6572000000000000000000000000000000000000000000000000000000602082015250565b5f612674602583611c9a565b915061267f8261261a565b604082019050919050565b5f6020820190508181035f8301526126a181612668565b9050919050565b7f4552433732313a207472616e7366657220746f20746865207a65726f206164645f8201527f7265737300000000000000000000000000000000000000000000000000000000602082015250565b5f612702602483611c9a565b915061270d826126a8565b604082019050919050565b5f6020820190508181035f83015261272f816126f6565b9050919050565b7f4f776e61626c653a2063616c6c6572206973206e6f7420746865206f776e65725f82015250565b5f61276a602083611c9a565b915061277582612736565b602082019050919050565b5f6020820190508181035f8301526127978161275e565b9050919050565b7f4552433732313a20617070726f766520746f2063616c6c6572000000000000005f82015250565b5f6127d2601983611c9a565b91506127dd8261279e565b602082019050919050565b5f6020820190508181035f8301526127ff816127c6565b9050919050565b7f4552433732313a207472616e7366657220746f206e6f6e2045524337323152655f8201527f63656976657220696d706c656d656e7465720000000000000000000000000000602082015250565b5f612860603283611c9a565b915061286b82612806565b604082019050919050565b5f6020820190508181035f83015261288d81612854565b9050919050565b7f45524337323155524953746f726167653a2055524920736574206f66206e6f6e5f8201527f6578697374656e7420746f6b656e000000000000000000000000000000000000602082015250565b5f6128ee602e83611c9a565b91506128f982612894565b604082019050919050565b5f6020820190508181035f83015261291b816128e2565b9050919050565b5f819050815f5260205f209050919050565b5f6020601f8301049050919050565b5f82821b905092915050565b5f6008830261297e7fffffffffffffffffffffffffffffffffffffffffffffffffffffffffffffffff82612943565b6129888683612943565b95508019841693508086168417925050509392505050565b5f819050919050565b5f6129c36129be6129b984611d3a565b6129a0565b611d3a565b9050919050565b5f819050919050565b6129dc836129a9565b6129f06129e8826129ca565b84845461294f565b825550505050565b5f90565b612a046129f8565b612a0f8184846129d3565b505050565b5b81811015612a3257612a275f826129fc565b600181019050612a15565b5050565b601f821115612a7757612a4881612922565b612a5184612934565b81016020851015612a60578190505b612a74612a6c85612934565b830182612a14565b50505b505050565b5f82821c905092915050565b5f612a975f1984600802612a7c565b1980831691505092915050565b5f612aaf8383612a88565b9150826002028217905092915050565b612ac882611c90565b67ffffffffffffffff811115612ae157612ae0611f6b565b5b612aeb825461225f565b612af6828285612a36565b5f60209050601f831160018114612b27575f8415612b15578287015190505b612b1f8582612aa4565b865550612b86565b601f198416612b3586612922565b5f5b82811015612b5c57848901518255600182019150602085019450602081019050612b37565b86831015612b795784890151612b75601f891682612a88565b8355505b6001600288020188555050505b505050505050565b5f81519050919050565b5f82825260208201905092915050565b5f612bb282612b8e565b612bbc8185612b98565b9350612bcc818560208601611caa565b612bd581611cd2565b840191505092915050565b5f608082019050612bf35f830187611dc8565b612c006020830186611dc8565b612c0d6040830185611ed3565b8181036060830152612c1f8184612ba8565b905095945050505050565b5f81519050612c3881611c08565b92915050565b5f60208284031215612c5357612c52611bd5565b5b5f612c6084828501612c2a565b91505092915050565b7f4e487b71000000000000000000000000000000000000000000000000000000005f52601260045260245ffd5b7f4552433732313a206d696e7420746f20746865207a65726f20616464726573735f82015250565b5f612cca602083611c9a565b9150612cd582612c96565b602082019050919050565b5f6020820190508181035f830152612cf781612cbe565b9050919050565b7f4552433732313a20746f6b656e20616c7265616479206d696e746564000000005f82015250565b5f612d32601c83611c9a565b9150612d3d82612cfe565b602082019050919050565b5f6020820190508181035f830152612d5f81612d26565b905091905056fea264697066735822122066cfe2ac5c776f33b015f50bf5f8f1293769670da6375b486d9a0df9af781ef264736f6c63430008150033",
  "immutableReferences": {},
  "source": "// SPDX-License-Identifier: MIT\npragma solidity ^0.8.0;\n\nimport \"@openzeppelin/contracts/token/ERC721/extensions/ERC721URIStorage.sol\";\nimport \"@openzeppelin/contracts/access/Ownable.sol\";\nimport \"@openzeppelin/contracts/utils/Counters.sol\";\n\ncontract MyNFT is ERC721URIStorage, Ownable {\n    using Counters for Counters.Counter;\n    Counters.Counter private _tokenIdCounter;\n\n    constructor() ERC721(\"Pikachu\", \"PIKA\") {}\n\n    function mintNFT(string memory tokenURI) public onlyOwner {\n        _safeMint(msg.sender, _tokenIdCounter.current());\n        _setTokenURI(_tokenIdCounter.current(), tokenURI);\n        _tokenIdCounter.increment();\n    }\n}\n\n",
  "sourcePath": "/Users/immutabler/ETHGlobal-NY/contracts/contracts/nft.sol",
  "compiler": {
    "name": "solc",
    "version": "0.8.21+commit.d9974bed.Emscripten.clang"
  },
  "schemaVersion": "3.4.16",
  "updatedAt": "2023-09-23T21:16:50.466Z",
  "devdoc": {
    "events": {
      "Approval(address,address,uint256)": {
        "details": "Emitted when `owner` enables `approved` to manage the `tokenId` token."
      },
      "ApprovalForAll(address,address,bool)": {
        "details": "Emitted when `owner` enables or disables (`approved`) `operator` to manage all of its assets."
      },
      "BatchMetadataUpdate(uint256,uint256)": {
        "details": "This event emits when the metadata of a range of tokens is changed. So that the third-party platforms such as NFT market could timely update the images and related attributes of the NFTs."
      },
      "MetadataUpdate(uint256)": {
        "details": "This event emits when the metadata of a token is changed. So that the third-party platforms such as NFT market could timely update the images and related attributes of the NFT."
      },
      "Transfer(address,address,uint256)": {
        "details": "Emitted when `tokenId` token is transferred from `from` to `to`."
      }
    },
    "kind": "dev",
    "methods": {
      "approve(address,uint256)": {
        "details": "See {IERC721-approve}."
      },
      "balanceOf(address)": {
        "details": "See {IERC721-balanceOf}."
      },
      "getApproved(uint256)": {
        "details": "See {IERC721-getApproved}."
      },
      "isApprovedForAll(address,address)": {
        "details": "See {IERC721-isApprovedForAll}."
      },
      "name()": {
        "details": "See {IERC721Metadata-name}."
      },
      "owner()": {
        "details": "Returns the address of the current owner."
      },
      "ownerOf(uint256)": {
        "details": "See {IERC721-ownerOf}."
      },
      "renounceOwnership()": {
        "details": "Leaves the contract without owner. It will not be possible to call `onlyOwner` functions. Can only be called by the current owner. NOTE: Renouncing ownership will leave the contract without an owner, thereby disabling any functionality that is only available to the owner."
      },
      "safeTransferFrom(address,address,uint256)": {
        "details": "See {IERC721-safeTransferFrom}."
      },
      "safeTransferFrom(address,address,uint256,bytes)": {
        "details": "See {IERC721-safeTransferFrom}."
      },
      "setApprovalForAll(address,bool)": {
        "details": "See {IERC721-setApprovalForAll}."
      },
      "supportsInterface(bytes4)": {
        "details": "See {IERC165-supportsInterface}"
      },
      "symbol()": {
        "details": "See {IERC721Metadata-symbol}."
      },
      "tokenURI(uint256)": {
        "details": "See {IERC721Metadata-tokenURI}."
      },
      "transferFrom(address,address,uint256)": {
        "details": "See {IERC721-transferFrom}."
      },
      "transferOwnership(address)": {
        "details": "Transfers ownership of the contract to a new account (`newOwner`). Can only be called by the current owner."
      }
    },
    "version": 1
  },
  "userdoc": {
    "kind": "user",
    "methods": {},
    "version": 1
  }
}